{
  "contractName": "mycontract",
  "abi": [
    {
      "inputs": [],
      "stateMutability": "nonpayable",
      "type": "constructor"
    },
    {
      "inputs": [
        {
          "internalType": "string",
          "name": "name",
          "type": "string"
        },
        {
          "internalType": "string",
          "name": "mobile",
          "type": "string"
        },
        {
          "internalType": "string",
          "name": "email",
          "type": "string"
        },
        {
          "internalType": "string",
          "name": "org",
          "type": "string"
        }
      ],
      "name": "insertContact",
      "outputs": [],
      "stateMutability": "nonpayable",
      "type": "function"
    },
    {
      "inputs": [],
      "name": "viewContacts",
      "outputs": [
        {
          "internalType": "string[]",
          "name": "",
          "type": "string[]"
        },
        {
          "internalType": "string[]",
          "name": "",
          "type": "string[]"
        },
        {
          "internalType": "string[]",
          "name": "",
          "type": "string[]"
        },
        {
          "internalType": "string[]",
          "name": "",
          "type": "string[]"
        }
      ],
      "stateMutability": "view",
      "type": "function",
      "constant": true
    }
  ],
  "bytecode": "0x608060405234801561001057600080fd5b50336000806101000a81548173ffffffffffffffffffffffffffffffffffffffff021916908373ffffffffffffffffffffffffffffffffffffffff160217905550610d1b806100606000396000f3fe608060405234801561001057600080fd5b50600436106100365760003560e01c80636b845b021461003b5780639bc06fba14610057575b600080fd5b61005560048036038101906100509190610731565b610078565b005b61005f610217565b60405161006f9493929190610949565b60405180910390f35b3373ffffffffffffffffffffffffffffffffffffffff1660008054906101000a900473ffffffffffffffffffffffffffffffffffffffff1673ffffffffffffffffffffffffffffffffffffffff16146100d057600080fd5b6005836040516100e091906109e6565b908152602001604051809103902060009054906101000a900460ff161561010657600080fd5b60018490806001815401808255809150506001900390600052602060002001600090919091909150908161013a9190610c13565b5060028390806001815401808255809150506001900390600052602060002001600090919091909150908161016f9190610c13565b506003829080600181540180825580915050600190039060005260206000200160009091909190915090816101a49190610c13565b506004819080600181540180825580915050600190039060005260206000200160009091909190915090816101d99190610c13565b5060016005846040516101ec91906109e6565b908152602001604051809103902060006101000a81548160ff02191690831515021790555050505050565b6060806060803373ffffffffffffffffffffffffffffffffffffffff1660008054906101000a900473ffffffffffffffffffffffffffffffffffffffff1673ffffffffffffffffffffffffffffffffffffffff161461027557600080fd5b600160026003600483805480602002602001604051908101604052809291908181526020016000905b8282101561034a5783829060005260206000200180546102bd90610a2c565b80601f01602080910402602001604051908101604052809291908181526020018280546102e990610a2c565b80156103365780601f1061030b57610100808354040283529160200191610336565b820191906000526020600020905b81548152906001019060200180831161031957829003601f168201915b50505050508152602001906001019061029e565b50505050935082805480602002602001604051908101604052809291908181526020016000905b8282101561041d57838290600052602060002001805461039090610a2c565b80601f01602080910402602001604051908101604052809291908181526020018280546103bc90610a2c565b80156104095780601f106103de57610100808354040283529160200191610409565b820191906000526020600020905b8154815290600101906020018083116103ec57829003601f168201915b505050505081526020019060010190610371565b50505050925081805480602002602001604051908101604052809291908181526020016000905b828210156104f057838290600052602060002001805461046390610a2c565b80601f016020809104026020016040519081016040528092919081815260200182805461048f90610a2c565b80156104dc5780601f106104b1576101008083540402835291602001916104dc565b820191906000526020600020905b8154815290600101906020018083116104bf57829003601f168201915b505050505081526020019060010190610444565b50505050915080805480602002602001604051908101604052809291908181526020016000905b828210156105c357838290600052602060002001805461053690610a2c565b80601f016020809104026020016040519081016040528092919081815260200182805461056290610a2c565b80156105af5780601f10610584576101008083540402835291602001916105af565b820191906000526020600020905b81548152906001019060200180831161059257829003601f168201915b505050505081526020019060010190610517565b505050509050935093509350935090919293565b6000604051905090565b600080fd5b600080fd5b600080fd5b600080fd5b6000601f19601f8301169050919050565b7f4e487b7100000000000000000000000000000000000000000000000000000000600052604160045260246000fd5b61063e826105f5565b810181811067ffffffffffffffff8211171561065d5761065c610606565b5b80604052505050565b60006106706105d7565b905061067c8282610635565b919050565b600067ffffffffffffffff82111561069c5761069b610606565b5b6106a5826105f5565b9050602081019050919050565b82818337600083830152505050565b60006106d46106cf84610681565b610666565b9050828152602081018484840111156106f0576106ef6105f0565b5b6106fb8482856106b2565b509392505050565b600082601f830112610718576107176105eb565b5b81356107288482602086016106c1565b91505092915050565b6000806000806080858703121561074b5761074a6105e1565b5b600085013567ffffffffffffffff811115610769576107686105e6565b5b61077587828801610703565b945050602085013567ffffffffffffffff811115610796576107956105e6565b5b6107a287828801610703565b935050604085013567ffffffffffffffff8111156107c3576107c26105e6565b5b6107cf87828801610703565b925050606085013567ffffffffffffffff8111156107f0576107ef6105e6565b5b6107fc87828801610703565b91505092959194509250565b600081519050919050565b600082825260208201905092915050565b6000819050602082019050919050565b600081519050919050565b600082825260208201905092915050565b60005b8381101561086e578082015181840152602081019050610853565b60008484015250505050565b600061088582610834565b61088f818561083f565b935061089f818560208601610850565b6108a8816105f5565b840191505092915050565b60006108bf838361087a565b905092915050565b6000602082019050919050565b60006108df82610808565b6108e98185610813565b9350836020820285016108fb85610824565b8060005b85811015610937578484038952815161091885826108b3565b9450610923836108c7565b925060208a019950506001810190506108ff565b50829750879550505050505092915050565b6000608082019050818103600083015261096381876108d4565b9050818103602083015261097781866108d4565b9050818103604083015261098b81856108d4565b9050818103606083015261099f81846108d4565b905095945050505050565b600081905092915050565b60006109c082610834565b6109ca81856109aa565b93506109da818560208601610850565b80840191505092915050565b60006109f282846109b5565b915081905092915050565b7f4e487b7100000000000000000000000000000000000000000000000000000000600052602260045260246000fd5b60006002820490506001821680610a4457607f821691505b602082108103610a5757610a566109fd565b5b50919050565b60008190508160005260206000209050919050565b60006020601f8301049050919050565b600082821b905092915050565b600060088302610abf7fffffffffffffffffffffffffffffffffffffffffffffffffffffffffffffffff82610a82565b610ac98683610a82565b95508019841693508086168417925050509392505050565b6000819050919050565b6000819050919050565b6000610b10610b0b610b0684610ae1565b610aeb565b610ae1565b9050919050565b6000819050919050565b610b2a83610af5565b610b3e610b3682610b17565b848454610a8f565b825550505050565b600090565b610b53610b46565b610b5e818484610b21565b505050565b5b81811015610b8257610b77600082610b4b565b600181019050610b64565b5050565b601f821115610bc757610b9881610a5d565b610ba184610a72565b81016020851015610bb0578190505b610bc4610bbc85610a72565b830182610b63565b50505b505050565b600082821c905092915050565b6000610bea60001984600802610bcc565b1980831691505092915050565b6000610c038383610bd9565b9150826002028217905092915050565b610c1c82610834565b67ffffffffffffffff811115610c3557610c34610606565b5b610c3f8254610a2c565b610c4a828285610b86565b600060209050601f831160018114610c7d5760008415610c6b578287015190505b610c758582610bf7565b865550610cdd565b601f198416610c8b86610a5d565b60005b82811015610cb357848901518255600182019150602085019450602081019050610c8e565b86831015610cd05784890151610ccc601f891682610bd9565b8355505b6001600288020188555050505b50505050505056fea26469706673582212206a05c8c6d941604acd180af53116b9b4225d945456f0fe6011f2b61012c5724464736f6c63430008130033",
  "immutableReferences": {},
  "source": "// SPDX-License-Identifier: MIT\npragma solidity >=0.8.19 <0.9.0;\n\ncontract mycontract {\n  address owner;\n  string[] names;\n  string[] mobiles;\n  string[] emails;\n  string[] organizations;\n  mapping(string=>bool) _contacts;\n  constructor() public {\n    owner=msg.sender;\n  }\nmodifier onlyOwner{\n  require(owner==msg.sender);\n  _;\n  \n}\n//inserting the contact into the daap\nfunction insertContact(string memory name,string memory mobile,string memory email,string memory org)public onlyOwner{\n  require(!_contacts[mobile]);\n  names.push(name);\n  mobiles.push(mobile);\n  emails.push(email);\n  organizations.push(org);\n  _contacts[mobile]=true;\n}\n//read contact from blockchain\nfunction viewContacts() public onlyOwner view returns(string[] memory,string[] memory,string[] memory,string[] memory) {\n  return(names,mobiles,emails,organizations);\n}\n}\n",
  "sourcePath": "C:\\Users\\Avi\\Desktop\\ContactDapp\\ContactDapp\\contracts\\mycontract.sol",
  "compiler": {
    "name": "solc",
    "version": "0.8.19+commit.7dd6d404.Emscripten.clang"
  },
  "schemaVersion": "3.4.16",
  "updatedAt": "2024-03-18T19:59:31.292Z",
  "networkType": "ethereum",
  "devdoc": {
    "kind": "dev",
    "methods": {},
    "version": 1
  },
  "userdoc": {
    "kind": "user",
    "methods": {},
    "version": 1
  }
}